:020000040800F2
:10000000100E0020450100081F1800089715000871
:100010001D1800088D0100088D1E0008000000005A
:10002000000000000000000000000000E91A0008C5
:100030002F0400080000000041180008EB1A000817
:100040005F0100085F0100085F0100085F01000810
:100050005F0100085F0100085F0100085F01000800
:100060005F0100085F0100085F0100085F010008F0
:100070005F0100085F0100085F0100085F010008E0
:100080005F0100085F0100085F0100085F010008D0
:100090005F0100085F0100085F0100085F010008C0
:1000A0005F0100085F0100085F0100085F010008B0
:1000B0005F010008A91B0008B51B00085F010008CC
:1000C0005F0100085F0100085F0100085F01000890
:1000D0005F0100085F0100085F0100085F01000880
:1000E0005F0100085F0100085F0100085F01000870
:1000F0005F0100085F0100085F0100085F01000860
:100100005F0100085F0100085F0100085F0100084F
:100110005F0100085F0100085F0100085F0100083F
:100120005F0100085F0100085F0100085F0100082F
:10013000DFF80CD000F018F800480047E520000870
:10014000100E00200648804706480047FEE7FEE7FD
:10015000FEE7FEE7FEE7FEE7FEE7FEE7FEE7FEE777
:10016000611B000831010008064C074D06E0E068FD
:1001700040F0010394E8070098471034AC42F6D3EE
:10018000FFF7DAFF6425000884250008FEE7000079
:100190001049114A30B4A1F12403C2E90C13082319
:1001A0000B61136B04219960136B0021D960136BF1
:1001B0000A495960002101F11403445C156B491C84
:1001C000C9B2EC541029F6D330BC0121024800F02A
:1001D000F1B90000F0090020880000201800FE1886
:1001E00070B50F4C01225103204600F0C2FB0122E2
:1001F00015032946204600F0BCFB0A4C0022294684
:10020000204600F0B6FBA5152946204601F06CFB00
:1002100029462046BDE87040012200F0AABB00003C
:10022000000C014000100140034610B500200246BA
:1002300002E09C5C6040521C8A42FADB10BD2DE952
:10024000F04100273D463C46662000F0CCF8C0F364
:1002500040186D2000F0C7F806466A2000F0C3F889
:10026000B8F1000F03D0F143C043CEB2C0B23106A3
:1002700000D52025710601D545F00105B10601D54F
:1002800045F00105F10602D545F0100510243107AF
:1002900003D545F0080544F00804710703D545F07F
:1002A000040544F00404B10703D545F0020544F009
:1002B0000204F10703D045F0010544F00104810672
:1002C00002D5022744F08004C10603D547F0010798
:1002D00044F04004000703D547F0040744F020042D
:1002E00039466A2000F0A1F829466B2000F09DF8FD
:1002F000B8F1000F01D0E043C4B22046BDE8F08160
:100300002DE9F04115460E460746002406E0E019A7
:10031000315DC0B200F089F8641CE4B2AC42F6D39F
:100320000120BDE8F08110B50446662000F05BF8BE
:10033000014614B1012C05D008E020F0400040F047
:10034000800103E020F0800040F04001BDE8104053
:10035000662000F06AB80146682000F066B810B563
:1003600004460D2000F03FF814B140F0E00101E038
:1003700020F0E001BDE810400D2000F056B810B5A7
:10038000612000F030F800F00F0010BD10B5102112
:10039000602000F04AF8BDE81040012000F032B8BB
:1003A00010B50221602000F040F8BDE810400220A6
:1003B00000F028B810B500F020F8142001F072FE0B
:1003C000FFF7EEFF612000F00EF820F0200040F073
:1003D0001001612000F029F80020FFF7C0FFBDE800
:1003E0001040FFF72CBF08B5FF218DF800106946BB
:1003F00001F062FD9DF8000008BDFF217F2000F0A4
:1004000014B8000070B505465FF00004FFF7B7FFB1
:10041000A84201D1012070BD641CE4B2C82001F0E3
:100420004FFE322CF2D3002070BD01F0EBBD7047BF
:100430002DE9F04104004FF0000504D094F83C0091
:10044000002618B107E00120BDE8F08184F83D6086
:10045000204600F083F8022084F83C002068016800
:1004600021F0020101602068016841F00101016092
:1004700000F084FA07464FF0030804E000F07EFA2B
:10048000C01B0A2853D820684068C007F6D02168EE
:100490004868C00758D0A069012801D145F08005FF
:1004A000E06901282FD025F04000226A012A2DD0D2
:1004B00020F02000626A012A2BD020F01000A26AEE
:1004C000012A29D020F00800E26A012A27D020F072
:1004D00004000A6822F0FC0202430A60D4E9020127
:1004E0000843D4E90412114308436168491E0843D4
:1004F0002168C8612068016821F00101016000F0F5
:100500003DFA054618E045F04000CEE740F02000F7
:10051000D0E740F01000D2E740F00800D4E740F008
:100520000400D6E700F02AFA401B0A2804D904F890
:100530003C8F0320667087E720684068C007F1D1D0
:1005400020684068C00703D0042084F83C007AE7A4
:100550002664012084F83C00002075E710B500688F
:10056000114986B088421DD11048C16941F000711F
:10057000C161C0690E4C00F0007004904FF400603F
:1005800000900020019002906946204600F0F8F8A3
:10059000A014009002200190032003906946204699
:1005A00000F0EEF806B010BD0064004000100240FC
:1005B000000801402DE9F05F0E4601680446886896
:1005C000400105D48868000102D48868C0006FD556
:1005D00094F83D0001280CD0012784F83D7094F870
:1005E0003C00222808D0322808D062280ED01220E1
:1005F00005E00220BDE8F09F422000E0522084F890
:100600003C008868400103D5002507E07220F6E72A
:100610008868000101D5012500E002254FF4C07073
:1006200000EB05100A5802F001020A50216B8A689B
:10063000EAB3D4F800C05CF800301343CA684968D4
:1006400042EAC1010B434CF80030216B0A7C02F0F6
:100650000F020A614FF4C271226801EB0511535871
:1006600023F00F03535022685358D4F830C0DCF8FD
:1006700010C043EA0C035350216B4FF4C47303EBD7
:1006800005130A7DD1F8151042EA01222168CA50EB
:10069000216B4FF4C67303EB05130A7ED1F81910D2
:1006A00042EA01222168CA5021680A5801E00DE09F
:1006B0005AE042F001020A5000F060F981464FF022
:1006C0000008DFF8B0A0DFF8B0B026E022681358C9
:1006D000D1F80CC0098843EA0C0343EA4151115098
:1006E000B3E7701C19D02EB100F048F9A0EB090057
:1006F000B04212D9032084F83C004DB1012D09D03D
:100700004FF400002168886084F83D80032071E781
:100710008020F7E74FF40040F4E7ADB12068012DE9
:10072000816816D0154888430028DAD194F83C0037
:10073000422811D0522811D0722813D084F83C706E
:1007400084F83D80002055E7206881682AEA01008E
:10075000EAE72BEA0100E7E7222000E0322084F8F4
:100760003C00EDE76220FAE7042084F83C00012019
:1007700040E7000001000004000100080000011033
:100780002DE9F84FDFF8B8A100220AF1040B144656
:1007900001274FF00F090BF1040E00BF0B6807FA99
:1007A00004F52B40AB4274D1DFF898C14E68A6EB3C
:1007B0000C0866452BD00DDC032E34D005DC36B397
:1007C000012E19D0022E2FD11BE0112E16D0122E81
:1007D0002AD119E0B8F5881F19D006DCB8F5803F9A
:1007E00015D0B8F5801F1FD111E0B8F5001F0ED04D
:1007F000B8F5041F18D10AE0CA6815E0CA68121DCE
:1008000012E0CA6808320FE0CA680C320CE08A684D
:100810002AB1012A4FF0080203D0456104E0042206
:1008200002E0056100E00022FF2B01D8064601E04E
:1008300000F104064FEA840501D9A5F12005D6F898
:1008400000C009FA05F82CEA080C02FA05F54CEA92
:10085000050CC6F800C04D68ED006AD53A4DAE698A
:1008600046F00106AE61AD6924F0030605F001050E
:100870000095364D06EB050CDCF80850A6074FEA4C
:10088000167809FA08F6B543314EB04202D1002677
:100890001AE04EE02F4EB04201D1012614E02E4E58
:1008A000B04201D102260FE02C4EB04201D1032606
:1008B0000AE02B4EB04201D1042605E0294EB04299
:1008C00001D1052600E0062606FA08F62E43CCF8EC
:1008D00008604D68DAF80060ED03554601D51E4307
:1008E00000E09E432E604D68AD0305D5DBF8006047
:1008F0001E43CBF8006004E0DBF800509D43CBF8CA
:1009000000504D68DEF80060ED02754601D51E43CB
:1009100000E09E432E604D68AD0205D5084D0C35B4
:100920002E681E432E6004E0054E0C3635689D434C
:100930003560641C102CFFF431AFBDE8F88F000067
:1009400000040140000011100010024000000140AE
:1009500000080140000C014000100140001401405B
:1009600000180140001C01408068084000D00120B0
:1009700070470AB1016170470904FBE701488068CC
:100980007047000038000020024881680278114456
:100990008160704738000020074810B5016841F0B9
:1009A00010010160032000F09DF8002000F006F81F
:1009B00000F024F8002010BD0020024070B50D4D5D
:1009C00004464FF47A712878B1FBF0F00A490968BF
:1009D000B1FBF0F000F02DFB48B9102C07D200223B
:1009E0002146501E00F05EF800206C6070BD0120B2
:1009F00070BD00003800002044000020214808B5E8
:100A0000816941F001018161816901F00101009179
:100A1000C16941F08051C161C06900F0805000900F
:100A2000032000F05FF8002211466FF00B0000F089
:100A300039F8002211466FF00A0000F033F8002266
:100A400011466FF0090000F02DF800221146501FEA
:100A500000F028F800221146101F00F023F80022B1
:100A60001146901E00F01EF800221146501E00F0A4
:100A700019F80548416821F0E06141F000714160DA
:100A800008BD0000001002400000014000F01F02FD
:100A9000012191404009800000F1E020C0F80011E0
:100AA00070470000F0B40E4B1B680C46C3F30223E2
:100AB000C3F10705042D00D90425191D072901D20A
:100AC000002300E0DB1E012606FA05F1491E214045
:100AD00099409E40761E16403143F0BC00F0A0BE07
:100AE0000CED00E0064900F0070208684FF6FF032E
:100AF000184040EA0220034A104308607047000093
:100B00000CED00E00000FA052DE9F047DFF83C812C
:100B100005460E46D8F8000000F00700B0420CD29F
:100B2000D8F8001021F007013143C8F80010D8F8B8
:100B3000000000F00700B04263D12878444C8007E1
:100B400005D56068A96820F0F00008436060287847
:100B5000C00745D06868012816D02168022816D041
:100B6000890700294DDA616821F0030101436160C2
:100B7000FFF704FF6968074641F2883001290FD06A
:100B80000229814619D027E021688903E9E7890114
:100B9000E7E700BFFFF7F2FEC11B494501D918E0A6
:100BA00081466068C0F381000128F3D118E000BFDE
:100BB000FFF7E4FEC11B49450BD86068C0F3810014
:100BC0000228F5D10CE000BFFFF7D8FEC11B494554
:100BD00002D90320BDE8F087606810F00C0FF3D154
:100BE000D8F80010404601F00701B1420BD9016866
:100BF00021F0070131430160006800F00700B042B6
:100C000001D00120E6E72878400705D56068E9684B
:100C100020F4E060084360602878000706D560682B
:100C2000296920F4605040EAC100606000F03CF89F
:100C30006168084AC1F30311515CC8400649086065
:100C40000020FFF7BBFE0020C4E7000000200240A8
:100C5000001002404C2500084400002001480068B4
:100C600070470000440000200448054900684968B6
:100C7000044AC1F30221515CC8407047440000207F
:100C8000001002405C2500080448054900684968D6
:100C9000044AC1F3C221515CC8407047440000209F
:100CA000001002405C25000812A185B00FC98DE834
:100CB0000F0014A0144A006804905168134801F012
:100CC0000C03042B10D0082B0ED1C1F38343C903AE
:100CD0001DF803000AD5516804AAC1F34041515CD4
:100CE0000A4A5043B0FBF1F005B070470849484349
:100CF000FAE7000002030405060708090A0B0C0DB9
:100D00000E0F1010010200000010024000127A00C5
:100D100000093D002DE9F84F04460078B94DC007A1
:100D200048D06868C0F38100012807D06868C0F324
:100D30008100022809D16868C00306D528688003AD
:100D400038D5606800286FD034E06068B0F5803F27
:100D50000BD010B1B0F5A02F11D0286820F480304E
:100D60002860286820F4802002E0286840F4803061
:100D70002860606888B1FFF701FE064609E0286830
:100D800040F480202860F0E7FFF7F8FD801B64281E
:100D900075D828688003F7D50CE0FFF7EFFD06460D
:100DA00005E000BFFFF7EAFD801B6428F0D8286843
:100DB0008003F7D42078944E80074FF001094FF05C
:100DC00000083BD5686810F00C0F07D06868C0F3C6
:100DD0008100022809D16868C00306D4286880070A
:100DE00014D5206901281FD110E02069B0B1C6F8E0
:100DF0000090FFF7C3FD074605E000BFFFF7BEFD0B
:100E0000C01B0228C4D828688007F7D52868616904
:100E100020F0F80040EAC10028600FE0C6F800802A
:100E2000FFF7ACFD074606E0E9E000BFFFF7A6FDCF
:100E3000C01B022823D828688007F7D42078000731
:100E40002CD57248A169D9B1C0F80090FFF796FD82
:100E5000074604E0FFF792FDC01B02280FD8686A1E
:100E60008007F7D56A484FF4FA510068B0FBF1F0FB
:100E7000009000BF0098411E0091FAD20EE080E081
:100E8000C0F80080FFF77AFD074604E0FFF776FD23
:100E9000C01B022875D8686A8007F7D420784007FD
:100EA00060D5E8690027C00008D4E86940F08050A8
:100EB000E861E869012700F080500090554801681A
:100EC000C90513D40168834641F480710160FFF7BE
:100ED00055FD824606E000BFFFF750FDA0EB0A007B
:100EE00064284ED8DBF80000C005F5D5E06801287D
:100EF0000AD008B1052813D0286A20F00100286222
:100F0000286A20F0040002E0286A40F0010028620C
:100F1000E06841F2883B98B1FFF730FD82460BE074
:100F2000286A40F004002862EEE700BFFFF726FDC4
:100F3000A0EB0A0159455AD8286A8007F6D50CE07B
:100F4000FFF71CFD824605E0FFF718FDA0EB0A0144
:100F500059454CD8286A8007F6D41FB1E86920F0BB
:100F60008050E861E06988B36968C1F381010229B2
:100F700045D00228C6F8608004D0FFF7FFFC044685
:100F800038E034E0FFF7FAFC074604E0FFF7F6FC30
:100F9000C01B02282BD828688001F7D4206AB0F53E
:100FA000803F05D16868A16820F40030084368607C
:100FB000D4E908010843696821F4741108436860A2
:100FC000C6F86090FFF7DAFC044606E015E000BFC3
:100FD000FFF7D4FC001B022809D828688001F7D548
:100FE0000BE000BFFFF7CAFC001B022802D9032058
:100FF000BDE8F88F28688001F4D40020F8E70120CC
:10100000F6E7000000100240000042428004424225
:1010100044000020007000404FF0E02104280869DF
:1010200003D020F004000861704740F00400FAE7A4
:10103000704710B5401EB0F1807F01D3012010BD74
:101040004FF0E02460610F21601700F0E9FB002001
:10105000A06107202061002010BD10B5FFF7E8FF58
:1010600010BD7047704730B590F83C20012A20D061
:10107000012280F83C20022380F83D3003685C6840
:1010800024F070045C6003685C680D682C435C604D
:1010900003689C6824F080049C6003689C6849682D
:1010A0000C439C6080F83D20002180F83C100846ED
:1010B00030BD022030BD10B5040003D094F83D00CF
:1010C00010B107E0012010BD002084F83C0020464C
:1010D00000F00CF8022084F83D00211D206800F08B
:1010E0006FFD012084F83D00002010BD08B5154AB1
:1010F0000168154891420ED1C16941F00201C161F8
:10110000C069002200F00200009011461D20FFF788
:10111000C9FC1D2010E00D4A914211D1C16941F076
:101120000401C161C069002200F004000090114672
:101130001E20FFF7B7FC1E20BDE80840FFF7A6BC45
:1011400008BD0000000400400010024000080040FC
:101150000168CA6842F00102CA600068016841F093
:1011600001010160002070470168CA6822F0010295
:10117000CA600068016A41F21112114207D1016A86
:101180009210114203D1016821F001010160002099
:10119000704770B5044690F83C00012817D001252F
:1011A00084F83C50022084F83D002068826822F0D8
:1011B000770222F47F4282600868502837D00DDC25
:1011C000202859D005DC88B3102841D151E00220F5
:1011D00070BD302853D040283AD13FE060282ED04F
:1011E00070280BD0B0F5805F03D0B0F5005F2FD131
:1011F00010E02068816821F0070115E0CB68D1E993
:101200000121206800F022FD2168886840F0770005
:1012100088601DE0CB68D1E90121206800F016FD4F
:101220002068816841F48041816011E01EE0CA6855
:101230004968206800F01CFD5021206806E0CA685B
:101240004968206800F025FD6021206800F008FD55
:1012500084F83D50002084F83C0070BDCA6849689D
:10126000206800F005FD40212068EFE7002120689C
:10127000ECE710212068E9E720212068E6E730212B
:101280002068E3E7704770B50446006801694FF0D5
:101290000005C943890715D4C168C943890711D41A
:1012A000E91E0161012020772068806980072046BF
:1012B00002D0FFF7E7FF04E000F098F8204600F0C6
:1012C00096F8257720680169C943490717D4C16892
:1012D000C943490713D46FF004010161022020774C
:1012E0002068806910F4407F204602D0FFF7CAFFD3
:1012F00004E000F07BF8204600F079F825772068BC
:101300000169C943090716D4C168C943090712D442
:101310006FF008010161042020772068C069800710
:10132000204602D0FFF7AEFF04E000F05FF8204651
:1013300000F05DF8257720680169C943C90617D414
:10134000C168C943C90613D46FF0100101610820B8
:1013500020772068C06910F4407F204602D0FFF754
:1013600091FF04E000F042F8204600F040F82577B5
:1013700020680169C943C90708D1C168C943C907C1
:1013800004D1891E0161204600F032F8206801690D
:10139000C943090609D4C168C943090605D46FF0D9
:1013A000800101612046FFF75CFE20680169C943A6
:1013B000490609D4C168C943490605D46FF0400104
:1013C0000161204600F015F820680169C9438906CB
:1013D0000BD4C168C943890607D46FF020010161AD
:1013E0002046BDE87040FFF73DBE70BD70477047B6
:1013F0007047704770B5040004D094F83900002598
:1014000010B106E0012070BD84F83850204600F08D
:1014100023F8242084F839002068C16821F40051A1
:10142000C160204600F048FC2068016921F4904129
:1014300001612068416921F02A0141612068C16889
:1014400041F40051C160E563202084F8390084F83C
:101450003A00002070BD000070B51C4E03680024E7
:101460001B49022003221B4D86B0B34211D18B6968
:1014700043F480438B618969039201F480410491B4
:101480000102CDE9001069462846FFF779F92815D1
:1014900013E0114EB34217D1CB6943F40033CB6153
:1014A000C969039201F4003104910421CDE90010CF
:1014B00069462846FFF764F90820CDE9000469462B
:1014C00028460294FFF75CF906B070BD0038014071
:1014D0000010024000080140004400402DE9F8439C
:1014E000044690F839001F4616460D46202850D174
:1014F000A5B19EB194F8380001284AD0012084F8A3
:1015000038004FF00008C4F83C80212084F83900EE
:10151000FFF734FAA6848146E68426E00120BDE880
:10152000F883E08C401EE084A0684B46B0F5805FF5
:101530004FF000024FF080012046009703D000F0EA
:1015400073FCE8B90DE000F06FFCC8B92888216889
:10155000C0F308004860206908B16D1C05E0AD1CAF
:1015600003E0216815F8010B4860E08C0028D8D111
:101570004B46002240212046009700F055FC08B160
:101580000320CCE7202084F8390084F8388000203C
:10159000C5E70220C3E7FEE7104810B50E49016019
:1015A0000921416000214FF4C0228160C0E903128B
:1015B0004FF4E002C0E90521C1610162416281622C
:1015C000C162FEF735FF002805D0BDE81040452177
:1015D00003A000F05CBC10BD006400408800002047
:1015E0002E2E2F5372632F63616E2E630000000056
:1015F0002DE9F043244885B0816941F020018161E3
:10160000816901F020010491816941F00401816147
:10161000816901F004010491816941F0080181614F
:10162000816901F008010491816941F01001816133
:101630008069DFF8588000F0100043F20104049044
:10164000002221464046FFF794F9DFF844904FF41A
:101650008A57002239464846FFF78BF9009401AAC1
:1016600001240025022682E8700069464046FFF703
:1016700087F801AA009782E8700069464846FFF79C
:101680007FF805B0BDE8F08300100240000C014077
:101690000010014010B5184886B016490160472176
:1016A0000024C0E9011440F2E731C0E90314846169
:1016B000FFF701FD18B1402110A000F0E8FB4FF446
:1016C0008050009069460C48FFF763FD18B1462131
:1016D0000AA000F0DCFB049404A907480594FFF776
:1016E000C2FC002803D04D2104A000F0D0FB06B0BE
:1016F00010BD000000040040CC0000202E2E2F530F
:1017000072632F74696D2E630000000010B51848D5
:1017100086B01649016041F61F410024C0E901145A
:1017200040F2E731C0E903148461FFF7C4FC18B14B
:101730005F2110A000F0ABFB4FF480500090694691
:101740000B48FFF726FD18B165210AA000F09FFBAA
:10175000049404A906480594FFF785FC002803D0EB
:101760006C2104A000F093FB06B010BD00080040FF
:101770000C0100202E2E2F5372632F74696D2E637F
:10178000000000000D4810B50B4901604FF4964170
:101790004160002181600C22C160C0E904128161B6
:1017A000C161FFF727FE002805D0BDE810404321A6
:1017B00003A000F06CBB10BD003801404C010020BC
:1017C0002E2E2F5372632F75736172742E63000077
:1017D0000D4810B50B4901604FF49641416000215E
:1017E00081600C22C160C0E904128161C161FFF710
:1017F00001FE002805D0BDE81040562103A000F0EE
:1018000046BB10BD004400408C0100202E2E2F53FB
:1018100072632F75736172742E630000FEE7704768
:101820000907090E002806DA00F00F0000F1E02099
:1018300080F8141D704700F1E02080F80014704714
:10184000704710B50020FEF76EFD3F20FEF783FDC8
:101850000020FEF784FDBDE81040FEF797BD0000B4
:1018600010B5FEF7BDFCFEF7A5FD0C2212490020C5
:10187000FEF746FD10490C220C311046FEF740FDE4
:101880000D49082208391820FEF73AFD0A491822A6
:1018900018312020FEF734FD07491D223031382051
:1018A000FEF72EFD04490B224D315520FEF728FD91
:1018B000BDE81040FFF7C5BFF4240008034B1861D2
:1018C000198105209A611870704700001C000020E3
:1018D0001FB5009100210191022102910321039182
:1018E0006946FEF74DFF1FBD1FB500910121019113
:1018F000032103916946FEF743FF1FBD70B50546FE
:1019000045F6FF76304600F04DF8002812D10A4C1B
:10191000206940F0020020616561206940F04000CC
:101920002061304600F03EF8012803D0216921F003
:101930000201216170BD0000002002400748C0681C
:10194000C10701D001207047410701D5022070472F
:10195000C00601D5032070470020704700200240D8
:101960000248016941F08001016170470020024096
:1019700010B5002306E000BF30F8024B21F81340F9
:101980005B1C9BB29342F7D310BD00000348024991
:1019900041600349416070472301674500200240D0
:1019A000AB89EFCD10B50446FFF7C8FF012803D07F
:1019B000002C00D1FF2010BD012000F081FB641E2F
:1019C0002404240CF0D1F5E72DE9F05F1546A0F1D1
:1019D00000628A468346B2F5002F52D2FFF7D6FF47
:1019E000C2F34906D70AC6F58064A54200D82C4642
:1019F000DFF894904FF0006000EBC72080464FF472
:101A000080622149FFF7B4FF00204FF6FF7106E026
:101A1000331839F813208A4203D1401C80B2A04207
:101A2000F6D3A04225D24046FFF768FF0020494682
:101A300007E000BF3AF810208319401C21F813205A
:101A400080B2A042F6D3104940464FF4806200BFF6
:101A500000F036F8A54210D0281B0AEB440AA34434
:101A6000002685B24FF480647F1CA542C2D82C4664
:101A7000C0E7224651465846EAE7BDE8F05FFFF767
:101A80006FBFBDE8F09F0000CC01002070B5064696
:101A90000D46FF20FFF786FF00280ED1074C206976
:101AA00040F0010020613580FF20FFF77BFF012817
:101AB00003D0216921F00101216170BD00200240A5
:101AC0002DE9F04116460F460546002408E000BF08
:101AD00037F814102846FFF7D9FF641CA4B2AD1CD8
:101AE000B442F5D3BDE8F081704710B5FEF74CFF66
:101AF000BDE81040FFF7B1BA30B58FB0012108043E
:101B0000CDE900100024029402250491CDE907508C
:101B10004FF4E01009906846FFF7FCF800B1FEE7CB
:101B20000F20CDE90A054FF48060CDE90C40022179
:101B30000AA80E94FEF7E8FF00B1FEE7FFF78EF863
:101B40004FF47A71B0FBF1F0FFF773FA0420FFF75E
:101B500063FA00221146501EFEF7A4FF0FB030BDFD
:101B60000D48016841F00101016041680B4A1140D4
:101B7000416001680A4A11400160016821F4802136
:101B80000160416821F4FE0141604FF41F01816052
:101B90000449C00308607047001002400000FFF8CD
:101BA000FFFFF6FE08ED00E00148FFF76CBB000008
:101BB000CC0000200148FFF766BB00000C010020AC
:101BC000F0B502681C4B1D4D1D4E1E4F1E4C4FF0B4
:101BD000804C984209D0A04207D0604505D0A84269
:101BE00003D0B04201D0B84204D122F0700E4A684E
:101BF00042EA0E02984209D0A04207D0604505D0C3
:101C0000A84203D0B04201D0B84203D122F44075BB
:101C1000CA682A4322F080054A692A4302608A681A
:101C2000C2620A688262984201D0A04201D1096969
:101C3000016301214161F0BD002C0140000400401E
:101C400000080040000C00400034014010B58468DA
:101C500042EA032224F47F440A432243826010BDF7
:101C6000826822F070020A4342F0070181607047E7
:101C700010B5036A046A24F001040462846924F044
:101C8000F00444EA021423F00A020A438461026267
:101C900010BD10B5036A23F0100303628369046A60
:101CA00023F4704343EA023224F0A00343EA011113
:101CB0008261016210BD00002DE9F0410446006818
:101CC0000169E26821F44051114301612169A06872
:101CD0000843616908432168CA6841F20C639A436A
:101CE0000243CA6020684169A26921F4407111432E
:101CF00041614C4920686425322688423CD1FEF778
:101D0000C3FF00EBC00101EB001061688900B0FB6C
:101D1000F1F7FEF7B9FF00EBC00101EB00106168BD
:101D2000B0468900B0FBF1F0B0FBF5F06FF01801A0
:101D3000484307EB800106EB0110B0FBF5F000F023
:101D4000F006FEF7A1FF00EBC00101EB0010616897
:101D50008900B0FBF1F0B0FBF5F006EB0016FEF7E2
:101D600093FF00EBC00101EB001061688900B0FB3C
:101D7000F1F7FEF789FF3BE0FEF776FF00EBC001CD
:101D800001EB001061688900B0FBF1F7FEF76CFF12
:101D900000EBC00101EB00106168B0468900B0FBA8
:101DA000F1F0B0FBF5F06FF01801484307EB80014C
:101DB00006EB0110B0FBF5F000F0F006FEF754FF63
:101DC00000EBC00101EB001061688900B0FBF1F08D
:101DD000B0FBF5F006EB0016FEF746FF00EBC00186
:101DE00001EB001061688900B0FBF1F7FEF73CFFE2
:101DF00000EBC00101EB001061688900B0FBF1F05D
:101E0000B0FBF5F06FF01801484307EB800108EBD9
:101E10000110B0FBF5F0216800F00F00304488603D
:101E2000BDE8F081003801402DE9F04198461746A1
:101E30000E460446069D1DE0681C1BD02DB1FEF722
:101E40009DFDA0EB0800A84214D92068C16821F4C8
:101E5000D071C1602068416921F0010141612020F9
:101E600084F8390084F83A00002084F83800032010
:101E7000BDE8F0812068006836EA000004D0002048
:101E8000B842D9D00020F3E70120F9E7FEE7FEE7EA
:101E900002E008C8121F08C1002AFAD17047704733
:101EA000002001E001C1121F002AFBD1704707206A
:101EB000401EFDD2704700002DE9F0470122244D5D
:101EC0008A468146140221462846FEF752FD2146E5
:101ED0002846FFF709FD2601002231462846FEF775
:101EE00048FD1C4F012231463846FEF742FD4FF4B3
:101EF0000058002241463846FEF73BFDFFF7D7FF6A
:101F0000FFF7D5FF49F0800000F052F8214628463F
:101F1000FFF7DEFC00F020F88AF8000000223146CE
:101F20002846FEF726FDFFF7C2FFFFF7C0FF01229C
:101F300041463846FEF71DFD012221462846FEF7A0
:101F400018FD31463846BDE8F0470122FEF711BDC5
:101F500000100140000C01402DE9F041FF25134F16
:101F600000244FF480564FF48078002231463846E2
:101F7000FEF7FFFCFFF79BFF6806050E01223146C6
:101F80003846FEF7F6FC41463846FEF7EDFC10B148
:101F900045F0010501E025F00105FFF788FF641C0D
:101FA000E4B2082CE1D32846BDE8F08100100140DE
:101FB0002DE9F041124F054600244FF480784FF48C
:101FC0008056002231463846FEF7D3FC280601D55C
:101FD000012200E0002241463846FEF7CAFCFFF726
:101FE00066FF6806050E012231463846FEF7C1FC41
:101FF000FFF75DFF641CE4B2082CE2D3BDE8F0817A
:10200000001001402DE9F0470122244D8A46814607
:10201000140221462846FEF7ACFC21462846FFF76D
:1020200063FC2601002231462846FEF7A2FC1C4F25
:10203000012231463846FEF79CFC4FF4005800223E
:1020400041463846FEF795FCFFF731FFFFF72FFFBB
:1020500009F07F00FFF7ACFF5046FFF7A9FF002211
:1020600031462846FEF785FCFFF721FFFFF71FFFEB
:10207000012241463846FEF77CFC012221462846D3
:10208000FEF777FC21462846FFF722FC314638460A
:10209000BDE8F0470122FEF76CBC000000100140D3
:1020A000000C014070B5054600244FF47A7604E038
:1020B000304600F005F8641CA4B2AC42F8D370BD01
:1020C00000EBC0014FF0E02041610021816101225D
:1020D00002610269D30701D0D203FAD5016181619F
:1020E0007047000086B00027ADF800700197029796
:1020F00003970497FEF750FCFFF7FEFCFFF778FA12
:10210000FFF7C8FAFFF702FBFFF73CFBFFF760FBA6
:10211000FFF742FAFFF7A4FBEE48FFF719F8EE4885
:10212000FFF722F84FF47A742046FFF7BBFF012235
:10213000EA49EB48FFF71CFCE948012269461838D8
:10214000FFF716FCE54DBDF80010AD1E4FF6FF7011
:102150006A88012A08D081420AD1E049E048891CF6
:102160001838FFF731FC09E081424FF00602F4D045
:10217000DA49DB48891C1838FFF7FAFBA8788DF894
:1021800012004FF0010B4FF4FA768DF813708DF8B2
:1021900004B03046FFF786FF3046FFF783FF304636
:1021A000FFF780FF3046FFF77DFF01A8FDF7F0FF46
:1021B0002346102201A9CB48FFF790F9C94E306899
:1021C0000168C9434906FBD40320FFF76BFF01A850
:1021D000FDF7DEFF4FF47A73102201A9C148FFF723
:1021E0007DF9DFF8F8A2C04C30680AF1020AB14666
:1021F0000168C9434906FAD428780128FCD120781F
:10220000FE283ED16278682A3BD1B7494FEA0A06D8
:10221000203108704A70002001EB400336F810208E
:10222000401C4FEA122C83F802C0C0B2DA700628B4
:10223000F2D3AA788A73AC48884681F80FB000229E
:1022400020212030FFF73AFB4FF4FA70FFF72AFF06
:102250000020414606EB400201EB40039289401CFE
:102260004FEA122C83F802C0C0B2DA700628F1D30C
:10227000022088F80F009C48002220212030FFF720
:102280001DFBE07BFE2836D00F219748FDF7CCFFE1
:10229000E17B884207D1002220219348FFF70EFB03
:1022A000C820FFF7FFFE9048FDF772FFA07B40B308
:1022B000402870D060286ED080286CD0C0286AD0AA
:1022C000102868D000F00F0101297DD0BBEB101F52
:1022D0000FD18548FDF75CFF4FF47A7310228249D5
:1022E0008048FFF7FBF8D9F800000168C9434906A8
:1022F000FBD42F7080E7002220217B48FFF7DEFA15
:10230000F7E7608841BA0029F3D02079A27A904299
:10231000EFD16079E27A9042EBD1A079227B9042B2
:10232000E7D1E079627B9042E3D16888C2B2A273C0
:10233000012802D00020534629E06B48FDF728FF12
:102340004FF47A73102268496648FFF7C7F8D9F846
:1023500000000168C9434906FBD4CAE733F810609E
:1023600000F101008E4211D1E0735F48FDF710FFCC
:102370004FF47A7310225C495A48FFF7AFF8D9F846
:1023800000000168C9434906FBD4B2E7C0B28242EB
:10239000E4D8AEE7FFE70009688001224F495048C2
:1023A000FFF712FB68888DF81200012811D14E4802
:1023B000FDF7EEFE4FF47A7310224B494948FFF7C0
:1023C0008DF8D9F8000000E073E00168C9434906C0
:1023D000F9D46A88042A17D1217B00200B094FEA1F
:1023E00043085346A8F1020821FA00F6F60707D081
:1023F00004EB400608EB000C368876BA23F81C6024
:10240000401CC0B20228EFD3062A17D1217B00203E
:102410000B094FEA43085346A8F1020821FA00F6D7
:10242000F60707D004EB400608EB000C368876BAB6
:1024300023F81C60401CC0B20228EFD3082A17D131
:10244000217B00200E094FEA86085346A8F10408B4
:1024500021FA00F6F60707D004EB400608EB000C63
:10246000368876BA23F81C60401CC0B20428EFD32B
:102470000C2A17D1217B00200E094FEA860853460B
:10248000A8F1040821FA00F6F60707D004EB40068D
:1024900008EB000C368876BA23F81C60401CC0B2EA
:1024A0000428EFD30D490E48891C1838FFF78CFA21
:1024B0001FE70D48FDF76CFE4FF47A7310220A49AE
:1024C0000848FFF70BF8D9F800100868C043400629
:1024D000FBD40EE7CC0000200C01002002000020FD
:1024E0003AC000088C0100204800002042D7C11CDF
:1024F00042C00F1C0066EC1DF0801408910202D04F
:10250000AEE0350000F410E242204081CA60203382
:10251000D1360C0A9F38292AC0940A530800B40007
:1025200000010000120800AA03000000000000FEE5
:10253000FF000F000000000000000063FF00001F0C
:1025400010504D06000F90008A183F7F00000000D9
:102550000000000001020304060708090000000053
:102560000102030484250008000000204800000048
:10257000901E0008CC25000848000020C80D00006F
:10258000A01E00080000010095628C629E629262AB
:10259000886209C600000000000000000000000082
:1025A000000000000000000000000000000000002B
:1025B00000000000FFFFFFFFFFFFFFFF0100000022
:0C25C000100000000000000000A24A040F
:0400000508000131BD
:00000001FF
